:100000000C94B5020C94FC020C94FC020C94FC02BF
:100010000C94FC020C94FC020C94FC020C94FC0268
:100020000C94FC020C94FC020C9443110C941512D9
:100030000C943B200C94FC020C94FC020C94FC02EB
:100040000C94FC020C9457270C94FC020C94FC02B8
:100050000C94FC020C94AF1F0C94FC020C94FC0258
:100060000C94FC020C94FC020C94FC020C94FC0218
:100070000C94FC020C94FC020C94FC020C94FC0208
:100080000C948E0C0C94FC020C94FC020C94FC025C
:100090000C94FC020C94FC020C94FC020C94FC02E8
:1000A0000C94FC020C94FC020C94FC02B003B5030B
:1000B000DB03D703E903E503F703F3038212A4127A
:1000C0009213A4129213E9120C1392136113741376
:1000D000051605164A164A167F169A16BF18BF1837
:1000E000AF16BF18981798173C184D18BF18B018BE
:1000F000291E1F20212223242526272D2E2A2B14BA
:100100001A0815171C180C12132F30313904160752
:10011000090A0B0D0E0F3334322879641D1B0619A2
:10012000051110363738757D787B7A80802C804CAD
:1001300050357E7F657C001080FF64321464321479
:10014000783C1E1E140A0500000000010101020295
:10015000030405050607090A0B0C0E0F11121415EE
:1001600017191B1D1F212325282A2C2F313436391E
:100170003B3E414346494C4F5255585A5D61646776
:100180006A6D707376797C7F8386898C8F9295985F
:100190009B9EA2A5A7AAADB0B3B6B9BCBEC1C4C64A
:1001A000C9CBCED0D3D5D7DADCDEE0E2E4E6E8EAAC
:1001B000EBEDEEF0F1F3F4F5F6F8F9FAFAFBFCFDED
:1001C000FDFEFEFEFFFFFFFFFFFFFFFEFEFEFDFD4B
:1001D000FCFBFAFAF9F8F6F5F4F3F1F0EEEDEBEAE0
:1001E000E8E6E4E2E0DEDCDAD7D5D3D0CECBC9C690
:1001F000C4C1BEBCB9B6B3B0ADAAA7A5A29E9B9818
:1002000095928F8C898683807C797673706D6A670E
:1002100064615D5A5855524F4C494643413E3B3903
:100220003634312F2C2A282523211F1D1B19171581
:100230001412110F0E0C0B0A090706050504030220
:10024000020101010000000001010202020202029B
:10025000030303030303030303030303030304046C
:100260000404040404040404040405050505050548
:10027000050505050606060606060606070707071E
:100280000707070808080808080909090909090AE9
:100290000A0A0A0A0B0B0B0B0B0C0C0C0C0C0D0DA9
:1002A0000D0D0E0E0E0E0F0F0F101010101111115C
:1002B00012121213131314141415151616161717F9
:1002C00018181919191A1A1B1B1C1C1D1D1E1E1F7C
:1002D00020202121222323242425262627282829DB
:1002E0002A2B2B2C2D2E2F3030313233343536370C
:1002F00038393A3B3C3D3E3F404142444546474900
:100300004A4B4C4E4F5152535556585A5B5D5E60A6
:1003100062636567696B6D6E70727476797B7D7FE1
:10032000818486888B8D909295979A9D9FA2A5A88F
:10033000ABAEB1B4B7BABEC1C4C8CBCFD3D6DADE88
:10034000E2E6EAEEF2F8FF300347004800360030FC
:10035000002000520047004200200055006E00645B
:100360000065007200200047006C006F00770020DD
:10037000004D006F00640000000A03590041004E68
:1003800000470000000403090409026D0004010095
:10039000A03209040000010301010009211101003C
:1003A000012240000705810308000A090401000139
:1003B00003010200092111010001224D00070582FD
:1003C0000308000A090402000103000000092111CA
:1003D000010001221B000705830308000A0904032A
:1003E000000103000000092111010001223900076A
:1003F0000584032000011201100100000008EDFE39
:10040000606001000102000105010906A101050764
:1004100019E029E7150025019508750181020508F5
:100420001901290595057501910295017503910141
:100430000507190029F71500250195F875018102B6
:10044000C0050C0901A1018503160100269C021AB2
:1004500001002A9C02751095018100C00501090266
:10046000A1010901A10005091901290515002501AE
:10047000950575018102950175038101050109301A
:1004800009311581257F9502750881060938158186
:10049000257F950175088106050C0A38021581250E
:1004A0007F950175088106C0C005010906A10105F7
:1004B0000719E029E71500250195087501810295C6
:1004C0000175088101050819012905950575019136
:1004D000029501750391010507190029FF150026F2
:1004E000FF00950675088100C000000000000000B4
:1004F00000000001010102020203030404050506D5
:1005000006070808090A0B0B0C0D0E0F1011121329
:10051000151617191A1B1D1E2022232527292B2DDE
:100520002F313335383A3D3F4244474A4D505356B8
:10053000595C5F6266696C7074777B7E82868A8E96
:100540009195999DA1A5A9ADB0B4B8BCC0C3C7CBC6
:10055000CED2D5D8DBDFE2E4E7EAECEFF1F3F5F752
:10056000F8FAFBFCFDFEFFFFFF0011241FBECFEFDA
:10057000DAE0DEBFCDBF04B603FE27C080918A0259
:1005800090918B02A0918C02B0918D028730904B9C
:10059000A740B04BD1F410928A0210928B021092B5
:1005A0008C0210928D0214BE84B7877F84BF0FB671
:1005B000F894A89580916000886180936000109203
:1005C00060000FBEE0E0F8E3099511E0A0E0B1E0C3
:1005D000E4E0F5E502C005900D92A633B107D9F726
:1005E00022E0A6E3B1E001C01D92AA38B207E1F70C
:1005F0000E94810E0C94802A0C9400002EE0929FA1
:10060000F0011124E80FF11DE051FF4F9491892F63
:100610008F7092959F700895CF93C82FCB010E9441
:10062000FE02282F30E080E1989FA0011124422B88
:10063000532B4038510519F480E090E021C09770A9
:10064000E92FF0E088E0C89FE00DF11D112484E05F
:10065000EE0FFF1F8A95E1F7E20FF31FEE0FFF1F6A
:10066000E050F84925913491C9018B7F833E910573
:1006700031F480913701813011F420E030E0C9017C
:10068000CF9108950F931F93CF938C01C62FFC0138
:1006900092816130A9F030F0623049F16B3009F499
:1006A00046C04DC0992371F00E94441F827231F000
:1006B0000E94441F80FD02C085E312C089E210C081
:1006C000911107C0809136010E94B3150E94A81EA7
:1006D00036C00E94441F82FF02C08DE301C081E248
:1006E00080933601809136010E94FC14EFCF99234C
:1006F00031F10E94441F80FF0DC00E94FC18FFEFE3
:1007000020E782E0F15020408040E1F700C0000087
:100710000E94D51F8FEF0E94471F0E94A81E8FEFD7
:100720000E944D1F0E94A81E0E94FC1808C0992319
:1007300031F08091370191E0982790933701F801CB
:100740008281882309F45DC08C2F90E0FC013397EF
:10075000E830F10508F055C0EA5AFF4F0C94252AFD
:10076000CF911F910F910C94200A0E94441F81FF8A
:1007700019C090914302892F8695815C8F7391787F
:10078000882319F0880F892B02C0892F8E628093ED
:1007900043028091430286958F73CF911F910F91F1
:1007A0000C949809CF911F910F910C94160A0E94F6
:1007B000441F81FF05C0CF911F910F910C94EF084A
:1007C000CF911F910F910C94D7080E94441F81FF75
:1007D00005C0CF911F910F910C942909CF911F91C2
:1007E0000F910C940E090E94441F81FF05C0CF9108
:1007F0001F910F910C945E09CF911F910F910C9452
:100800004309CF911F910F9108958AB1807D8AB9D4
:100810008BB1807D8BB9089580E885BF85BF0E942C
:10082000D8090E94050480B38C7F80BB81B38360AC
:1008300081BB6E98769A8AB18F728AB98BB1806DBE
:100840008BB987B18F7387B988B1806C88B9809173
:100850004C01882331F084B1847484B985B18B6BE9
:1008600005C084B1847084B985B18B6F85B92FEFD1
:1008700083EC99E0215080409040E1F700C00000F7
:100880001E9903C081E080934C01E2E4F1E0A8E30B
:10089000B1E0119211921D921D9221E0EC34F20709
:1008A000C1F70895CF92DF92EF92FF920F931F93BB
:1008B000CF93DF931F92CDB7DEB708E311E0680155
:1008C00040E0FF24F39485E0E82E423071F018F404
:1008D000413041F004C0433059F0443061F0509A47
:1008E00058980BC0519A599808C0529A5A9805C006
:1008F000539A5B9802C0559A5D9820EA2A95F1F7C1
:1009000050914C01552309F49AC02FB121702F2525
:1009100030E0799903C082E090E002C080E090E08E
:10092000282B392B669903C084E090E002C080E058
:1009300090E0822B932B66B1062E000C770B60950E
:1009400070959B012227330F221F3327B3E0220F1C
:10095000331FBA95E1F7282B392B369903C080E174
:1009600090E002C080E090E0B901682B792B23B1C0
:10097000022E000C330B20953095C9018827990F62
:10098000881F9927F5E0880F991FFA95E1F7862BC4
:10099000972B4C9903C020E430E002C020E030E007
:1009A000822B932B199903C020E830E002C020E08D
:1009B00030E0822B932B189903C0A0E0B1E002C075
:1009C000A0E0B0E08A2B9B2B1D9903C0E0E0F2E091
:1009D00002C0E0E0F0E08E2B9F2B1C9903C020E0CA
:1009E00034E002C020E030E0BC01622B732B29B15F
:1009F000022E000C330B20953095C9018827990FE2
:100A0000881F9927982F8827990F990F990F862B60
:100A1000972B4E9903C020E030E102C020E030E087
:100A2000822B932B1B9903C020E030E202C020E010
:100A300030E0822B932B513009F49AC0A2C08FB1C1
:100A400081708F2590E0799903C022E030E002C0E8
:100A500020E030E0822B932B669903C024E030E045
:100A600002C020E030E0BC01622B732B26B1022EC5
:100A7000000C330B20953095C9018827990F881FEA
:100A80009927B3E0880F991FBA95E1F7862B972B2A
:100A9000369903C0A0E1B0E002C0A0E0B0E08A2B2C
:100AA0009B2B1E9903C0A0E2B0E002C0A0E0B0E022
:100AB0008A2B9B2B4C9903C0E0E4F0E002C0E0E0FD
:100AC000F0E08E2B9F2B199903C020E830E002C084
:100AD00020E030E0BC01622B732B189B0EC023B1C9
:100AE000022E000C330B20953095C9018827990FF1
:100AF000881F9927982F882702C080E091E0862BD5
:100B0000972B1D9903C060E072E002C060E070E0C6
:100B1000862B972B1C9903C060E074E002C060E054
:100B200070E0862B972B69B1062E000C770B609531
:100B300070959B012227330F221F3327322F222744
:100B4000330F330F330F282B392B4E9903C080E01E
:100B500090E102C080E090E0822B932B1B9903C0B0
:100B600020E030E202C020E030E0822B932B09C06D
:100B7000443039F49C0120783170232B11F08F77A9
:100B80009E73D6012D913C9111972817390721F0BA
:100B90008D939C93E092010149830E940504498151
:100BA0004F5FB2E0CB0ED11C453009F08ECE809164
:100BB00001018823C1F0815080930101882339F01D
:100BC000EFE9FFE03197F1F700C000000CC0E2E46C
:100BD000F1E0D8018D919D918D0181939193B1E0C8
:100BE00002341B07B1F780910001813089F40E9423
:100BF000B0138450914061F48FEF0E94471F0E9410
:100C0000A81E8FEF0E944D1F0E94A81E1092000187
:100C100081E00F90DF91CF911F910F91FF90EF90A6
:100C2000DF90CF900895E82FF0E0EE0FFF1FEE5B0E
:100C3000FE4F808191810895089581FF02C0229A1C
:100C400001C022982A980895CF93C82F833041F489
:100C50000E94CB2680914C01882331F12E9A48C006
:100C60000E94B826C730A0F4C43000F58FEF8C0F77
:100C70008230A0F50E94E1260E9422270E944F2781
:100C8000EC2FF0E0EA5CFE4F8491CF910C94F126BA
:100C9000C730B9F0C83011F50E94E1260E941C2728
:100CA0000E944F2781E014C08D9822C00E94E12647
:100CB0000E9422270E94492786E08C1BCF910C942A
:100CC00054270E94E1260E941C270E944F2780E0A3
:100CD0000E943F2783E0CF910C9443270E94222754
:100CE0000E944F2780E00E94F126CF910C94E726C6
:100CF000CF91089580914C01882311F0269A089590
:100D0000859A089580914C01882311F02E9A0895B8
:100D10008D98089580914C01882311F02E980895A4
:100D20008D9A08951F93CF93DF9300D000D01F9228
:100D3000CDB7DEB7162F8091890280FF20C08E7F4D
:100D40008E3041F4662331F080E20E94462780E134
:100D50000E941827809189028E7F803181F41123AF
:100D600071F080E20E94462780E10F900F900F9073
:100D70000F900F90DF91CF911F910C9408270F9047
:100D80000F900F900F900F90DF91CF911F910895CA
:100D900030914C01242F2095332321F03EB12323A1
:100DA0003EB103C031B3232331B3432B3FB7F89493
:100DB00050914C01FC01680F791FE617F70709F401
:100DC00023C08191552381F098E04EB9000000C006
:100DD00087FF2EB9880F000000C000C000C02EB9E8
:100DE00000C09A9591F7E9CF98E041BB000000C0A0
:100DF00087FF21BB880F000000C000C000C021BBDE
:100E000000C09A9591F7D9CF3FBF08959C0180917A
:100E10004C01882321F09DB1942B9DB903C090B360
:100E2000942B90BBCB01880F991F680F791FC901C4
:100E30000E94C80687EC90E00197F1F700C000001F
:100E4000089520914C01222311F044E001C040E4B8
:100E50000C940607AF92BF92CF92DF92EF92FF926F
:100E60000F931F93CF93DF936C01790150E0FA0148
:100E7000E95BFD4F44918FEF90E0FC01E61BF10927
:100E8000E95BFD4FE491E09509F495C0C42FD0E0F3
:100E90008E1B91098C9F90018D9F300D9C9F300D72
:100EA0001124E32F8CE3A82EB12CC601B5010E94BA
:100EB000FD29DC016230710509F446C0D0F46115EA
:100EC000710599F16130710509F079C0C31BD10931
:100ED000B501681B790BC69FC001C79F900DD69FB7
:100EE000900D1124B5010E94FD29032F060F142F28
:100EF00067C06430710509F44BC0B8F16530710505
:100F000009F05DC0C31BD109B501681B790BC69FF1
:100F1000C001C79F900DD69F900D1124B5010E946E
:100F2000FD29132FE32FE60F44C0C31BD109CC9D2D
:100F3000C001CD9D900DDC9D900D1124B5010E9446
:100F4000FD29132F160F35C0C31BD109CA9FC0013D
:100F5000CB9F900DDA9F900D1124B5010E94FD29C1
:100F6000142F032FE32FE60F2BC0C31BD109B501AC
:100F7000681B790BC69FC001C79F900DD69F900D2F
:100F80001124B5010E94FD29132F160F032F0FC046
:100F9000C31BD109CA9FC001CB9F900DDA9F900D52
:100FA0001124B5010E94FD29032F060F132FE42FF2
:100FB00007C0042F05C0E42F142F042F01C0E0E068
:100FC000D70111960C9311971C931296EC93DF9115
:100FD000CF911F910F91FF90EF90DF90CF90BF9036
:100FE000AF9008958AE090E00C94332AAB01BC01E5
:100FF0008AE090E00C94512AE3E4F2E08CE98083EB
:10100000A4E4B2E08C918078866180688C938FEF45
:1010100082838383609143027091440280914502F0
:10102000909146020C94F6078091430280FF06C01F
:1010300060E170E08BE492E00C94210780E090E0A6
:10104000FC01E55BFD4F1182108212820396803312
:101050009105B1F7EDCF20E030E0F901E55BFD4F00
:101060008183608342832D5F3F4F20333105A9F791
:101070000C941408EF92FF920F931F93CF93DF937A
:1010800000D01F92CDB7DEB7009143021091440209
:101090002091450230914602009347021093480286
:1010A0002093490230934A022091430220FF21C03D
:1010B000042FF62EE92E182F9E012F5F3F4F0E941E
:1010C0002A078091470210FB87F980934702169503
:1010D000809148028078182BE0FA17F910934802A3
:1010E000F092490200934A024B8169818A810E94F1
:1010F0002B080F900F900F90DF91CF911F910F91C0
:10110000FF90EF9008950F931F93CF93DF93EC011F
:10111000062F142F9091430290FF44C0892F8E77A1
:10112000823021F4CE010E943A081BC0892F869597
:101130008F732EE3280F2F73243018F4109146027A
:1011400010C0865C8F73893060F4C92FCC1FCC2708
:10115000CC1FD09144028D2F880FC82BD7FBDD27E1
:10116000D0F980914302C0FB87F980934302C69572
:10117000809144028078C82BD0FBC7F9C093440209
:10118000009345021093460260914302709144021D
:101190008091450290914602DF91CF911F910F916E
:1011A0000C94F607DF91CF911F910F910895E3E41E
:1011B000F2E02081221F2227221F30914402432F78
:1011C000440F842F822B37FB992790F90A9668E603
:1011D00071E00E94112A438162810C94830820915E
:1011E0004302221F2227221F30914402432F440F23
:1011F000842F822B37FB992790F98A3091051CF4B4
:10120000825A9E4F01C00A9768E671E00E94112A37
:1012100040914602609145020C948308609145021A
:10122000862F90E08F3E910514F46F5E01C06FEF42
:1012300080914302881F8827881F90914402292F9C
:10124000220F97FB992790F940914602822B0C942C
:10125000830860914502862F90E0419714F0615118
:1012600001C060E080914302881F8827881F909109
:101270004402292F220F97FB992790F940914602AB
:10128000822B0C94830840914602842F90E08F3E7D
:10129000910514F44F5E01C04FEF80914302881F07
:1012A0008827881F90914402292F220F97FB9927A6
:1012B00090F960914502822B0C948308409146027C
:1012C000842F90E0419714F0415101C040E080919B
:1012D0004302881F8827881F90914402292F220FDC
:1012E00097FB992790F960914502822B0C94830813
:1012F00080915D0181110FC081E080935D0189E0E3
:10130000809391008FB7F89493E09093990090EDBB
:10131000909398008FBF0895E1E7F0E080818260AC
:1013200080830895E1E7F0E080818D7F80830895D8
:101330009091430290FF3BC09178811102C092606E
:1013400007C0883110F09E6203C08F73880F982BFE
:101350009093430260914302709144028091450250
:10136000909146020E94F60780914302982F9E7743
:10137000923019F40E94920907C08695825C8F739F
:10138000863110F40E948C0980914302881F8827BF
:10139000881F90914402292F220F97FB992790F9DB
:1013A0004091460260914502822B0C948308089577
:1013B0008091210281608093210281E080935E010F
:1013C0000E942622811104C00E9407220E94FC076D
:1013D0000E94F20760934302709344028093450297
:1013E000909346026F3F7F4F8F4F9F4F21F40E9493
:1013F000FC070E941408809143028E7761F40E94DA
:10140000FC070E94F20760934302709344028093AA
:101410004502909346020E9478098091430280FF22
:1014200004C086958F730C949809089580914302A7
:1014300086958F738F5F883108F081E00C9498094E
:1014400080914302982F909590FB80F980934302FE
:10145000609143027091440280914502909146024E
:101460000E94F6078091430280FF04C086958F7327
:101470000C9498090E9492092FEF80E792E0215086
:1014800080409040E1F700C000000C941408CF9316
:10149000C82F80915B0190915C010E94851FEC2F09
:1014A000F0E0ED5BFE4FE491F0E08E179F0718F13E
:1014B0000E94791F90935C0180935B01E0915A0137
:1014C000F0E0E95BFE4F449180914302881F88273A
:1014D000881F90914402292F220F97FB992790F99A
:1014E00060914502822B0E943A0880915A0190E057
:1014F000019680935A01CF910895CF93C82F809180
:101500005801909159010E94851FEC2FF0E0E05C9A
:10151000FE4FE491F0E08E179F07E8F00E94791FDC
:101520009093590180935801409146026091450281
:1015300080915601909157010E943A08809156017E
:1015400090915701019668E671E00E94FD29909301
:10155000570180935601CF910895CF92DF92FF9269
:101560000F931F93CF93DF93F82E809154019091A6
:1015700055010E94851FEF2DE695F0E0E05CFE4FDF
:10158000E491F0E08E179F07F0F10E94791F90938D
:101590005501809354010BE412E0C0E0D0E088E6EE
:1015A000C82EDD24D39480915201909153018C0F69
:1015B0009D1FB6010E94FD2998014091460260914D
:1015C00045020E942A0766960D5F1F4FC03681E0D4
:1015D000D80749F70E941408209152013091530115
:1015E000F0FE0BC0C901069668E671E00E94FD2975
:1015F000909353018093520106C0215031093093DA
:10160000530120935201DF91CF911F910F91FF90D1
:10161000DF90CF9008958F929F92AF92BF92CF921A
:10162000DF92EF92FF920F931F93CF93DF93C82F18
:1016300080FF03C0DD24DA9402C0DD24D3948091BE
:101640005001909151010E94851FC695EC2FF0E04A
:10165000E35CFE4FE491F0E08E179F0708F466C04C
:101660000E94791F90935101809350019BE4E92ED1
:1016700092E0F92E0DE412E0C0E0D0E026E0822EE8
:10168000912CF80131971082F7011082F801108235
:1016900086E0A82EB12CC12C80914F018C0D87FDC6
:1016A000805F082E000C990BC817D907E9F4209128
:1016B00046022A9DC0012B9D900D1124B4010E9469
:1016C000112A462F80914302881F8827881F9091F6
:1016D0004402592F550F97FB992790F99701609174
:1016E0004502852B0E942A07CD0CF1E0AF1AB10804
:1016F00099F6219683E0E80EF11C0D5F1F4FC03173
:10170000D10509F0BECF0E94140880914F0191E0ED
:10171000D91206C0811102C08DE006C0815004C0FC
:1017200090E001968F70992780934F01DF91CF91C0
:101730001F910F91FF90EF90DF90CF90BF90AF90EF
:101740009F908F9008958F929F92AF92BF92CF9269
:10175000DF92EF92FF920F931F93CF93DF93CDB75A
:10176000DEB7E0970FB6F894DEBF0FBECDBF182FDF
:1017700080914D0190914E010E94851FE12FF0E074
:10178000E65CFE4FE491F0E08E179F0708F4B3C0CB
:101790000E94791F90934E0180934D01CE010196D6
:1017A0007C016E0193E0C90ED11C00E010E04701FE
:1017B000F60131971082F7011082F6011082A12CF8
:1017C000B12C8BE0A816B10461F1909102018091D7
:1017D00003019A9D800D112487FD04C080311CF007
:1017E0008FE001C080E0082E000C990B0817190744
:1017F000A1F480914302881F8827881F909144029A
:10180000592F550F97FB992790F997014091460260
:1018100060914502852B0E942A07FFEFAF1ABF0A8D
:10182000D0CF0F5F1F4F93E0E90EF11CE3E0CE0E27
:10183000D11C0031110509F0BBCFADE4B2E0F801D5
:10184000EF70FF27CD0101979F01220F331FE20F99
:10185000F31FAF01480D591DFA012181FC012083BE
:101860000197FA012081FC012083FA0182818C9387
:101870000F5F1F4F13960032110509F70E941408DD
:101880008091020110910301612F012E000C770B52
:101890008130B9F461507109072E000C880B990B47
:1018A0000E94DB282BEA3AEA4AE251EC0E949E2889
:1018B00087FF05C086EF809303018FEF16C011509C
:1018C00018C06F5F7F4F072E000C880B990B0E948A
:1018D000DB2826E535E545ED51E40E94632918161D
:1018E0003CF489E18093030181E08093020103C00D
:1018F0001F5F10930301E0960FB6F894DEBF0FBE92
:10190000CDBFDF91CF911F910F91FF90EF90DF90AE
:10191000CF90BF90AF909F908F9008951F920F929D
:101920000FB60F9211242F933F934F935F936F93B2
:101930007F938F939F93AF93BF93EF93FF93809188
:10194000430286958F739EE3980F9F73943020F423
:1019500082500E94470A23C09AE3980F9F739330E6
:1019600020F486500E947D0A1AC097E3980F9F7357
:10197000963020F489500E94AD0A11C091E3980F6F
:101980009F73963020F48F500E940B0B08C09BE28F
:10199000980F9F73933018F485510E94A30BFF9109
:1019A000EF91BF91AF919F918F917F916F915F91D7
:1019B0004F913F912F910F900FBE0F901F90189550
:1019C0008091800108950895CF93DF9300D01F92F6
:1019D000CDB7DEB79C0180917F02843019F593E08A
:1019E00099833B832A839093E9008FEF9091E800DD
:1019F000815095FD06C095ED9A95F1F70000811193
:101A0000F5CF8091E80085FF0DC040E050E063E035
:101A100070E0CE0101960E94330F8091E8008E772E
:101A20008093E8000F900F900F90DF91CF91089571
:101A300020917F022430F1F422E02093E9002FEF7F
:101A40003091E800215035FD06C035ED3A95F1F7AB
:101A500000002111F5CF2091E80025FF0BC040E0E8
:101A600050E065E070E00E94330F8091E8008E77CF
:101A70008093E8000895CF93DF93EC0190917F026B
:101A8000943009F046C080910E018823D9F08091EE
:101A90000F018823B9F09093E9008FEF9091E8004F
:101AA000815095FD06C095E19A95F1F700008111EE
:101AB000F5CF8091E80085FF2CC040E050E060E267
:101AC00070E017C081E08093E9008FEF9091E8000B
:101AD000815095FD06C095ED9A95F1F700008111B2
:101AE000F5CF8091E80085FF14C040E050E068E049
:101AF00070E0CE010E94330F8091E8008E778093D2
:101B0000E80080E2FE01A0E6B1E001900D928A9526
:101B1000E1F7DF91CF91089580917E02811109C094
:101B20000E94C8100E9425118091E2008460809379
:101B3000E200089510927E020895089542E061EC5B
:101B400081E00E94421042E061EC82E00E9442107B
:101B500042E061EC83E00E94421042E261EC84E0EA
:101B60000C94421080918102833009F455C030F406
:101B7000813071F0823009F48EC008958A3009F402
:101B80007AC08B3009F460C0893009F09CC020C055
:101B900080918002813A09F096C08091E800877FA9
:101BA0008093E8008091840290918502892B21F432
:101BB00060E280E691E003C060E080E090E070E0E9
:101BC0000E947E0F8091E8008B778093E800089553
:101BD00080918002813209F076C0809184029091D8
:101BE0008502009719F0039709F06DC08091E80015
:101BF000877F8093E8008091E80082FD05C0809196
:101C00007F028111F8CF5FC08091F1008093800145
:101C10008091E8008B7753C080918002813A09F06F
:101C200052C08091840290918502892B09F04BC0AB
:101C30008091E800877F8093E8008091E80080FF32
:101C4000FCCF80910E0136C0809180028132D9F59F
:101C50008091840290918502892BA9F58091E800FA
:101C6000877F8093E8000E947710809182028093A2
:101C70000E010C94FC1880918002813221F5809134
:101C8000E800877F8093E8000E94771080918302AC
:101C900080938101089580918002813AA1F480911E
:101CA000E800877F8093E8008091E80080FFFCCF08
:101CB000809181018093F1008091E8008E7780937C
:101CC000E8000C947710089508950895809180019C
:101CD00080935F011092800180E00E941D060E94A7
:101CE000B8140C94FC180C94660E0E94F71F809197
:101CF0007D02882329F00E94222081110C941D0F5F
:101D0000089584B7877F84BF0FB6F894A895809113
:101D10006000886180936000109260000FBE90E0C8
:101D200080E80FB6F89480936100909361000FBE35
:101D30000E94640E0E94ED130E94C8100E9425119B
:101D40008091E20084608093E200789480917F0229
:101D50008430E1F70E94EF1384E091E00E94AB131E
:101D60000E94650E80917F02853019F40E94750EE5
:101D7000F9CF0E94F913F6CF0E94372080915F01BE
:101D80008093800108950C94BC0E292F33272330B3
:101D90003105C9F064F42130310581F0223031057C
:101DA00009F043C08DE690E029E833E042C02132DB
:101DB0003105F1F02232310541F137C082E190E086
:101DC00026EF33E036C099278130910541F082300B
:101DD000910541F0892B49F5E5E8F3E005C0E9E715
:101DE000F3E002C0E7E4F3E0849190E09F0121C0BA
:101DF0006430D8F4E62FF0E0EE0FFF1FEC5DFE4FED
:101E00002081318189E090E014C0643070F470E08A
:101E1000FB01EE0FFF1FE45EFE4F20813181FB01CD
:101E2000E85EFE4F808190E004C080E090E020E01A
:101E300030E0FA0131832083089580E189BD82E199
:101E400089BD09B400FEFDCF8091D8008F7D8093BD
:101E5000D8008091E00082608093E0008091E000F3
:101E600081FDFCCF0895CF92DF92EF92FF920F9306
:101E70001F93CF93DF93EC018B016A010E949610B0
:101E8000811133C0C114D10439F0F60180819181F0
:101E9000081B190BC80FD91FE12CF12C01151105D6
:101EA00019F18091E80085FD16C08091E8008E77D9
:101EB0008093E800C114D10449F0F601808191813A
:101EC000E80EF91EF182E08285E00FC00E949610B4
:101ED000882321F30AC089918093F10001501109F0
:101EE000FFEFEF1AFF0ADACF80E0DF91CF911F9169
:101EF0000F91FF90EF90DF90CF9008952091860290
:101F0000309187022617370748F06115710539F4BB
:101F10002091E8002E772093E80001C0B90140E04D
:101F200061157105A9F120917F02222309F443C0B4
:101F3000253009F442C02091E80023FD40C02091E3
:101F4000E80022FD32C02091E80020FFE9CF409157
:101F5000F3002091F20030E0342BFC01CF01611539
:101F6000710559F02830310540F481918093F100DA
:101F7000615071092F5F3F4FF1CF41E028303105AB
:101F800009F040E02091E8002E772093E800C8CFC8
:101F90004111C9CF0AC080917F02882361F085304A
:101FA00061F08091E80083FD0AC08091E80082FF23
:101FB000F2CF80E0089582E0089583E0089581E003
:101FC000089520918602309187022617370748F03E
:101FD0006115710539F42091E8002E772093E8000F
:101FE00001C0B901FC0120E06115710591F18091FA
:101FF0007F02882309F440C0853009F43FC08091F6
:10200000E80083FD3DC08091E80082FD2FC08091F3
:10201000E80080FFE9CF2091F3008091F20090E08A
:10202000922B6115710559F08830910540F4249187
:102030002093F1003196615071090196F2CF21E0B1
:10204000089709F020E08091E8008E778093E800FF
:10205000CBCF2111CCCF0AC080917F02882361F0C1
:10206000853061F08091E80083FD0AC08091E8002E
:1020700082FFF2CF80E0089582E0089583E0089522
:1020800081E00895982F973058F59093E9009817BC
:1020900039F07091EC002091ED005091F00003C0F8
:1020A000242F762F50E021FF19C03091EB003E7FA6
:1020B0003093EB003091ED003D7F3093ED00309197
:1020C000EB0031603093EB007093EC002093ED0057
:1020D0005093F0002091EE0027FF07C09F5FD3CF01
:1020E0008F708093E90081E0089580E008958091E9
:1020F000800287FF11C08091E80082FD05C08091B9
:102100007F028111F8CF11C08091E8008B770BC05E
:1021100080917F02882349F08091E80080FFF8CF0A
:102120008091E8008E778093E80008952091E40084
:102130003091E50095E64091EC00842F817040FFDE
:1021400022C08091E80080FD1CC080917F0288231E
:1021500091F0853091F08091EB0085FD10C04091A9
:10216000E4005091E5004217530729F39A0191507A
:1021700011F784E0089582E0089583E0089581E0F6
:10218000089580E008954091E80042FFDECF089571
:102190000E9436110E943E11E0EEF0E080818160E5
:1021A0008083E8EDF0E080818F77808319BCA7ED14
:1021B000B0E08C918E7F8C9380818F7E8083109293
:1021C0007E0208950F931F93CF93DF930E943611E1
:1021D0000E943E11C8EDD0E088818F778883888186
:1021E0008068888388818F7D888319BC10927F02E4
:1021F00010927B0210927D0210927C0200EE10E0A1
:10220000F80180818B7F808388818160888342E0B0
:1022100060E080E00E944210E1EEF0E080818E7F7D
:102220008083E2EEF0E0808181608083808188603D
:102230008083F80180818E7F80838881806188839C
:10224000DF91CF911F910F910895E8EDF0E080812B
:102250008F7E8083E7EDF0E080818160808384E081
:1022600082BF81E080937E020C94E210E8EDF0E002
:1022700080818E7F80831092E20008951092DA00B0
:102280001092E10008951F920F920FB60F92112441
:102290002F933F934F935F936F937F938F939F936E
:1022A000AF93BF93EF93FF938091E10082FF0BC048
:1022B0008091E20082FF07C08091E1008B7F8093D4
:1022C000E1000E94AA138091DA0080FF1FC0809174
:1022D000D80080FF1BC08091DA008E7F8093DA00E7
:1022E0008091D90080FF0DC080E189BD82E189BD68
:1022F00009B400FEFDCF81E080937F020E948C0D27
:1023000005C019BC10927F020E949A0D8091E100D5
:1023100080FF19C08091E20080FF15C08091E2002B
:102320008E7F8093E2008091E20080618093E200E2
:102330008091D80080628093D80019BC85E080939A
:102340007F020E94730E8091E10084FF30C0809173
:10235000E20084FF2CC080E189BD82E189BD09B41F
:1023600000FEFDCF8091D8008F7D8093D8008091B2
:10237000E1008F7E8093E1008091E2008F7E809368
:10238000E2008091E20081608093E20080917B0214
:10239000882311F084E007C08091E30087FD02C02C
:1023A00081E001C083E080937F020E94C30E809190
:1023B000E10083FF29C08091E20083FF25C0809166
:1023C000E100877F8093E10082E080937F0210929A
:1023D0007B028091E1008E7F8093E1008091E2009A
:1023E0008E7F8093E2008091E20080618093E20022
:1023F00042E060E080E00E9442108091F00088603E
:102400008093F0000E949D0DFF91EF91BF91AF91DD
:102410009F918F917F916F915F914F913F912F91FC
:102420000F900FBE0F901F9018951F920F920FB62E
:102430000F9211242F933F934F935F936F937F934A
:102440008F939F93AF93BF93CF93DF93EF93FF93BC
:10245000C091E900CF708091EC00D82FD17080FD41
:10246000D0E81092E9008091F000877F8093F0001F
:1024700078940E9459121092E9008091F0008860CF
:102480008093F000CD2BCF70C093E900FF91EF91C6
:10249000DF91CF91BF91AF919F918F917F916F917C
:1024A0005F914F913F912F910F900FBE0F901F9012
:1024B00018951F93CF93DF93CDB7DEB7AA970FB6CA
:1024C000F894DEBF0FBECDBFE0E8F2E088E08E0FEB
:1024D0009091F10091938E13FBCF0E94B20D8091E9
:1024E000E80083FF1FC18091800290918102492FF3
:1024F00050E04A30510508F015C1FA01E25AFF4F89
:102500000C94252A803881F0823809F00BC1809123
:1025100084028F708093E9008091EB0085FB88270F
:1025200080F91092E90006C080917C0290917D02B2
:10253000911182609091E800977F9093E8008093DA
:10254000F1001092F100C8C0282F2D7F09F0EAC0D9
:10255000882319F0823061F0E5C0809182028130D9
:1025600009F0E0C0933009F080E080937D022BC039
:1025700080918202811127C0809184028F7009F4BA
:10258000D1C08093E9002091EB0020FF1CC0933064
:1025900021F48091EB00806214C09091EB00906177
:1025A0009093EB0021E030E0A90102C0440F551FD9
:1025B0008A95E2F74093EA001092EA008091EB00DE
:1025C00088608093EB001092E9008091E800877F9B
:1025D00086C08111A7C0109182021F778091E3000D
:1025E0008078812B8093E3008091E800877F80933F
:1025F000E8000E9477108091E80080FFFCCF809176
:10260000E30080688093E300111102C082E001C002
:1026100083E080937F0286C08058823008F082C0B9
:1026200080918202909183028C3D53E0950779F569
:1026300083E08A838AE289834FB7F894DE01139698
:1026400020E03EE051E2E32FF0E050935700E491A8
:1026500020FF03C0E295EF703F5FEF708E2F90E098
:10266000EA3010F0C79601C0C0968D939D932F5FFE
:10267000243149F74FBF8091E800877F8093E800BD
:102680006AE270E0CE0101960E947E0F14C0AE0196
:102690004F5F5F4F609184020E94C50EBC01892B81
:1026A00009F440C09091E800977F9093E8008981F9
:1026B0009A810E94E10F8091E8008B778093E80077
:1026C00031C0803879F58091E800877F8093E800F9
:1026D00080917B028093F1008091E8008E77809357
:1026E000E8000E9477101EC081111CC090918202E8
:1026F0009230C0F48091E800877F8093E800909347
:102700007B020E94771080917B02811106C080912C
:10271000E30087FD02C081E001C084E080937F0276
:102720000E949E0D8091E80083FF0AC08091E8001E
:10273000877F8093E8008091EB0080628093EB00BC
:10274000AA960FB6F894DEBF0FBECDBFDF91CF9132
:102750001F910895089590938501809384010895B1
:1027600080918401909185010895E0918401F09118
:102770008501309721F00190F081E02D099480E0EF
:102780000895E0918401F0918501309721F0028055
:10279000F381E02D09940895E0918401F091850181
:1027A000309721F00480F581E02D0994089520915F
:1027B0008201309183018217930771F09093830116
:1027C00080938201E0918401F0918501309721F09E
:1027D0000084F185E02D099408950C94B9140E94A9
:1027E000701F0E940C040E94C1200E94A1260C941C
:1027F00000284F925F927F928F929F92AF92BF92EA
:10280000CF92DF92EF92FF920F931F93CF93DF93BC
:1028100000D000D01F92CDB7DEB70E94520497E8D7
:10282000C92E91E0D92E00E010E0AA24A394B12C87
:10283000702E802F0E9413064C01F601419051909A
:102840006F014826592641145104B1F40F5F1F4F00
:102850000530110569F78FEF89838A831B820E94F7
:10286000791F8160782F9D838C8349815A816B8188
:102870008D810E94BC1441C08091210281FD0E9483
:102880001C0620E030E07501022E02C0EE0CFF1C99
:102890000A94E2F7C70184219521892B41F129830C
:1028A0007A828E209F2091E0892809F490E09B8312
:1028B0000E94791F8160782F9D838C8349815A8182
:1028C0006B818D810E94BC1449815A816B817C810E
:1028D0008D810E949206000F111FF801E957FE4FEB
:1028E00080819181E826F926F182E08206C02F5F7F
:1028F0003F4F2E30310539F6A9CF0E946A1F0E9442
:10290000CF23109186010E94B5131817D1F00E94B1
:10291000B513809386010F900F900F900F900F903A
:10292000DF91CF911F910F91FF90EF90DF90CF90AB
:10293000BF90AF909F908F907F905F904F900C943E
:102940006D1F0F900F900F900F900F90DF91CF9110
:102950001F910F91FF90EF90DF90CF90BF90AF90BD
:102960009F908F907F905F904F9008950C941D06DC
:102970000895089508950895CF93DF93CDB7DEB7F6
:102980002B970FB6F894DEBF0FBECDBF942F4F83A9
:10299000252F588769877A878B874A855B85452BE2
:1029A00021F02F3F09F59F3FF9F4DE01119686E0F3
:1029B000FD0111928A95E9F785E0FE0137960190B5
:1029C0000D928A95E1F749815A816B817C818D81D5
:1029D0009E810E94961B2B960FB6F894DEBF0FBE09
:1029E000CDBFDF91CF9108954F81588569857A8554
:1029F0008B850E949206D9CFCF93882309F4B1C06A
:102A0000C82F8CEF8C0F813A48F48C2F0E94092636
:102A10008111A7C08C2F0E94BE1E0CC080E28C0FBB
:102A2000883058F4C77081E001C0880FCA95EAF772
:102A30000E94471FCF910C94A81E88E58C0F873108
:102A400008F08FC0C83A09F445C0C93A09F445C036
:102A5000CA3A09F445C0CD3B09F445C0CE3B09F460
:102A600045C0CB3A09F445C0CC3A09F445C0CD3A4B
:102A700009F445C0CE3A09F445C0CF3A09F445C03F
:102A8000C13B09F445C0C03B09F445C0C23B09F451
:102A900045C0C33B09F445C0C43B09F445C0C53B30
:102AA00009F445C0C63B09F445C0C73B09F445C01D
:102AB000C83B09F445C0C93B09F445C0CA3B09F409
:102AC00045C0CB3B09F445C0CC3B09F445C080E090
:102AD00090E044C082EE90E041C089EE90E03EC0BC
:102AE0008AEE90E03BC08FE690E038C080E790E04F
:102AF00035C085EB90E032C086EB90E02FC083EBD1
:102B000090E02CC084EB90E029C087EB90E026C0D9
:102B10008CEC90E023C08DEC90E020C083E891E045
:102B20001DC08AE891E01AC082E991E017C084E9EB
:102B300091E014C081E292E011C083E292E00EC005
:102B400084E292E00BC085E292E008C086E292E067
:102B500005C087E292E002C08AE292E0CF910C9435
:102B6000D713CF9108958823E9F09CEF980F913AFD
:102B700018F40E94001F0DC090E2980F983058F48E
:102B8000877091E001C0990F8A95EAF7892F0E941A
:102B90004D1F0C94A81E885A873120F480E090E0E5
:102BA0000C94D7130895882321F00E94471F0C949A
:102BB000A81E0895882321F00E944D1F0C94A81E82
:102BC0000895CF92DF92EF92FF920F931F93CF93CE
:102BD000DF9300D01F92CDB7DEB7172FFC01058120
:102BE00002950F70F280FF2041F06B8389839A83F6
:102BF0000E94671F9A8189816B81E12FE295EF70B6
:102C0000F0E0E859FF4F0C94252A812F807F712F27
:102C10007F70172F882311F01295107FFF20C1F0CD
:102C2000112309F40AC280E2860F883010F0611186
:102C300005C0812F6B830E94471F04C0812F6B83C7
:102C40000E945A1F6B816B830E94A81E6B81F5C185
:102C5000862F6B830E94B3156B81112309F48FC2F9
:102C600080E2860F883010F0611104C0812F0E942D
:102C70004D1F03C0812F0E94601F0F900F900F9077
:102C8000DF91CF911F910F91FF90EF90DF90CF9048
:102C90000C94A81E212F207F712F7F70172F2032B8
:102CA00011F01295107F613071F4FF2041F0033074
:102CB00008F065C20E94441F812379F01EC00230D3
:102CC00008F05DC21AC0FF20B1F0002331F0FC0112
:102CD000258120FFB2C12F702583812F0F900F9087
:102CE0000F90DF91CF911F910F91FF90EF90DF90A8
:102CF000CF900C94D3150111B1C1812F34C1812F14
:102D000086958695837009F03AC2FF2021F0862FC0
:102D1000912F937002C080E090E00F900F900F9081
:102D2000DF91CF911F910F91FF90EF90DF90CF90A7
:102D30000C94D713862FFF2019F00E94D72202C0CF
:102D40000E943F230F900F900F90DF91CF911F9122
:102D50000F91FF90EF90DF90CF900C94C423812FC0
:102D6000837009F06FC0F1100AC2262F22952695B4
:102D70002770220F220F862F8F70C82ED12CE12CA6
:102D8000F12C022E04C0CC0CDD1CEE1CFF1C0A949E
:102D9000D2F764FF12C08FE090E0A0E0B0E004C082
:102DA000880F991FAA1FBB1F2A95D2F7BC01CD011E
:102DB000609570958095909503C060E070E0CB01C0
:102DC000212F269526952370422F50E04230510541
:102DD000B9F04330510529F16C297D298E299F29AD
:102DE0004130510511F10F900F900F90DF91CF916D
:102DF0001F910F91FF90EF90DF90CF900C94041DE6
:102E00006C297D298E299F290F900F900F90DF91BB
:102E1000CF911F910F91FF90EF90DF90CF900C9486
:102E2000161D0E94041DC701B6010F900F900F9050
:102E3000DF91CF911F910F91FF90EF90DF90CF9096
:102E40000C94F21CFF2019F0812F817001C086952F
:102E5000882309F494C1262F229526952770220FE6
:102E6000220F862F8F70C82ED12CE12CF12C022E30
:102E700004C0CC0CDD1CEE1CFF1C0A94D2F764FFCE
:102E800012C08FE090E0A0E0B0E004C0880F991F6E
:102E9000AA1FBB1F2A95D2F7BC01CD016095709582
:102EA0008095909503C060E070E0CB01212F2695BE
:102EB00026952370422F50E042305105B9F043303F
:102EC000510529F16C297D298E299F294130510511
:102ED00011F10F900F900F90DF91CF911F910F91F3
:102EE000FF90EF90DF90CF900C94BB1D6C297D2953
:102EF0008E299F290F900F900F90DF91CF911F91F6
:102F00000F91FF90EF90DF90CF900C94CD1D0E9419
:102F1000BB1DC701B6010F900F900F90DF91CF91AD
:102F20001F910F91FF90EF90DF90CF900C94A91D0F
:102F3000603F31F118F4603E48F47AC0623F09F412
:102F400048C0B0F1633F09F455C072C0062F0F703E
:102F5000812F8F71FF2021F00E94421D802FBECE55
:102F60000E94631D802F0F900F900F90DF91CF91E3
:102F70001F910F91FF90EF90DF90CF900C94DA1596
:102F8000FF2091F0023008F0FAC0812F8F710F906E
:102F90000F900F90DF91CF911F910F91FF90EF90C5
:102FA000DF90CF900C94881D033008F0E8C0EDCF7F
:102FB000FF2089F0812F8F710F900F900F90DF917C
:102FC000CF911F910F91FF90EF90DF90CF900C94D5
:102FD000421DFF2079F3812F8F710F900F900F907A
:102FE000DF91CF911F910F91FF90EF90DF90CF90E5
:102FF0000C94631DFF2079F0812F8F710F900F903B
:103000000F90DF91CF911F910F91FF90EF90DF9084
:10301000CF900C942D1D0F900F900F90DF91CF91BA
:103020001F910F91FF90EF90DF90CF900C94281D8F
:10303000FF2089F0002309F4BDCF862F0F900F9059
:103040000F90DF91CF911F910F91FF90EF90DF9044
:10305000CF900C94FC14002309F4BDCF862F0F9061
:103060000F900F90DF91CF911F910F91FF90EF90F4
:10307000DF90CF900C94B315412F4F700E946420C5
:103080000F900F900F90DF91CF911F910F91FF90B4
:10309000EF90DF90CF900C943A1CF11070C0662333
:1030A00051F0812F8F70843031F0712F707F262F77
:1030B0002F70172F122B712F7F70872F90E0823087
:1030C0009105A1F194F4009721F1019709F057C0FF
:1030D0000F900F900F90DF91CF911F910F91FF9064
:1030E000EF90DF90CF900C9428288330910559F110
:1030F000049709F044C0862F0F900F900F90DF9136
:10310000CF911F910F91FF90EF90DF90CF900C9493
:1031100086280F900F900F90DF91CF911F910F9104
:10312000FF90EF90DF90CF900C9411280F900F90AC
:103130000F90DF91CF911F910F91FF90EF90DF9053
:10314000CF900C9444280F900F900F90DF91CF9167
:103150001F910F91FF90EF90DF90CF900C94632818
:10316000412F4F700F900F900F90DF91CF911F91D3
:103170000F91FF90EF90DF90CF900C9442030F904F
:103180000F900F90DF91CF911F910F91FF90EF90D3
:10319000DF90CF9008950F931F93CF93DF93FC019F
:1031A0008081918123813481232B99F09F3F11F4F9
:1031B0008F3F79F0EF016081718182810E94851ECD
:1031C0008C010E94DF1D0E94EF1CB801CE010E94FD
:1031D000E115DF91CF911F910F9108950E94671F14
:1031E0000E94361F0E94A81E0E9474240E94C423BD
:1031F00080E090E00C94D7130E94571F0C94EE18B7
:103200000E947A1E292F22952F7030E02C30310534
:103210004CF42A3031056CF422503109223031054A
:1032200088F407C02C30310549F02F30310531F0DA
:1032300009C0803E48F0803F29F406C093FB8827F0
:1032400080F9089580E0089581E00895CF93DF9399
:1032500000D000D01F92CDB7DEB70F900F900F9027
:103260000F900F90DF91CF910895CF93DF9300D00F
:1032700000D000D0CDB7DEB726960FB6F894DEBFEB
:103280000FBECDBFDF91CF9108951F93CF93DF93F2
:10329000C091920116E080919301C81799F0D0E097
:1032A0001C9FF0011D9FF00D1124EC56FE4F408134
:1032B000518162817381848195810E9435192196A3
:1032C000C770E9CFDF91CF911F9108954091C4015C
:1032D0005091C5016091C6017091C7018091C801EC
:1032E0009091C9010C9435198091C90182958F7014
:1032F00009F054C08091C601882309F44FC0809121
:103300009201A09193016091C4017091C501409117
:10331000C7015091C801B6E08A1709F43FC090E098
:1033200041155105C1F17F3F11F46F3FA1F1B89FE5
:10333000F001B99FF00D1124EC56FE4F218172135C
:103340002AC02081621327C02281211124C0238139
:1033500034812417350710F421503109241B350B13
:10336000243B3105C0F42091C9012F7020612093C6
:10337000C90126E0289FF001299FF00D1124E7568E
:10338000FE4F80818F708061808384EC91E00E9489
:10339000CB180C94451901968770BECF0895CF9233
:1033A000DF92EF92FF920F931F93CF93DF93CDB7EE
:1033B000DEB762970FB6F894DEBF0FBECDBF8C01AB
:1033C00085E0F801DE011D9601900D928A95E1F7E6
:1033D000D8014C9111965C91119712966C911297AD
:1033E0001396CD90DC9014973091C4017091C50173
:1033F0008091C7019091C801009709F46BC17F3F8C
:1034000019F43F3F09F466C1E090C601EE2009F4CB
:10341000C0C02091C901C816D90628F0F601E81BE2
:10342000F90BCF0104C0809590958C0D9D1DFF2454
:10343000F394843B910578F0F12C207F09F0C6C00D
:103440007C2DD98AC88A89890E94261984EC91E04A
:103450000E94CB18B1C0822F807F09F046C075133F
:1034600014C0341312C0611110C02F70206120935A
:10347000C9010E94661984EC91E00E94CB188091EA
:10348000C901D80115968C932EC0CD2819F15F3F44
:1034900011F44F3FF9F0F62E61111CC0809192019A
:1034A0002091930136E0821709F45AC090E0389FCA
:1034B000F001399FF00D1124EC56FE4F7181571326
:1034C00006C07081471303C07281711103C0019659
:1034D0008770E9CFF62E662309F418C18091C901DF
:1034E00081608093C901F12C11C1751308C0341398
:1034F00006C0611104C08091C901D801C3C04D87C5
:103500005E878D859E856A8B0E9400196A89882353
:10351000E1F16623D1F12091C901822F82958F704C
:1035200090E0029774F08091C4019091C501988752
:103530008F831986DB86CA862C87CE0107960E9468
:10354000CB1886E0F801A4ECB1E001900D928A95C9
:10355000E1F70E9474190E946619FF24F394D6C003
:103560004D875E878D859E850E947A1E292F229524
:103570002F7030E0223031050CF0BCC09F7009F094
:10358000B6C0805E883008F4C1C0C8010E94CB1864
:10359000E4CFC816D90608F453C0F601E81BF90BAE
:1035A000CF01843B910508F450C0F12C7C2DD98AC1
:1035B000C88A89890E942619E4ECF1E086E0DF01DF
:1035C0001D928A95E9F70E946619A0C0751314C070
:1035D000341312C0611110C08091C901F8018583B4
:1035E000C8010E94CB1886E0E4ECF1E0DF011D92F7
:1035F0008A95E9F7FE2C8AC04D875E878D859E856A
:103600006A8B0E9400196A89882309F4BECF662359
:1036100009F4BBCF2091C901822F82958F7090E071
:1036200002970CF48ECF8091C4019091C5019A83CA
:1036300089831B82DD82CC822E83CE0101967FCFCF
:10364000809590958C0D9D1DACCFF62E662309F4C8
:103650009CCF75132EC034132CC02091C90120FDBE
:103660001FC0822F82958F70D9F0D80115962C93A8
:1036700015978F3049F08F5F982F9295907F822F0A
:103680008F70892B15968C93C8010E94CB1886E009
:10369000F801A4ECB1E001900D928A95E1F793CF87
:1036A00086E0F801A4ECB1E001900D928A95E1F773
:1036B0002DC04D875E878D859E850E9400198111E2
:1036C00040CF8091C90181608093C901C8010E94E7
:1036D000CB181CC0662309F458CF4D875E878D85B3
:1036E0009E850E940019882309F44FCF2ACF8111AB
:1036F00048CF0CC0243031050CF047CF9F7009F43F
:1037000040CFF8019581907F09F03BCF8F2D6296D5
:103710000FB6F894DEBF0FBECDBFDF91CF911F91E2
:103720000F91FF90EF90DF90CF9008951F93CF936C
:10373000DF93CDB7DEB72C970FB6F894DEBF0FBE80
:10374000CDBF4F83588769877A878B879C87CE0147
:1037500007960E94CF19882369F08F8198852A8562
:103760003B85232BF1F19F3F09F063C08F3F09F0A8
:1037700060C037C086E0FE013796DE0111960190E9
:103780000D928A95E1F76F817885EA85FB85309700
:1037900041F17F3F11F46F3F21F12091930130E01F
:1037A000C9010196877099274091920150E08417D2
:1037B000950709F447C069837A83FD83EC8396E01B
:1037C000929FD001939FB00D1124AC56BE4FFE01C5
:1037D000319601900D929A95E1F7809393010E94A2
:1037E000451916E080919201909193018917C1F1DA
:1037F000189FC00111248C569E4F0E94CF19882318
:1038000079F1E09192011E9FF0011124EC56FE4FD8
:103810004081518162817381848195810E94351933
:103820008091920190E00196877099278093920190
:10383000D9CF4F81588569857A858B859C850E9473
:103840003519CFCF0E94FC1810929301109292016B
:10385000E4ECF1E086E0DF011D928A95E9F7C1CF43
:103860002C960FB6F894DEBF0FBECDBFDF91CF917F
:103870001F910895DF92EF92FF920F931F93CF93C2
:10388000DF93FC01892B09F48AC0E12CF12CDD24A3
:10389000D394EF0121968491853709F461C058F4DF
:1038A000843708F04EC0843008F06AC08130D1F00F
:1038B000823071F174C0883709F45DC050F48637E6
:1038C00009F455C0873709F06AC08E2D0E94541F35
:1038D00054C09CE7980F903708F061C08F770E9422
:1038E000B31550C08F010E5F1F4FFE01849190E20F
:1038F000980F983050F48770FD2D01C0FF0F8A9506
:10390000EAF78F2F0E945A1F14C00E94FC1413C0A4
:103910008F010E5F1F4FFE01C49180E28C0F883033
:1039200060F4C7708D2D01C0880FCA95EAF70E9418
:10393000601F0E94A81EE80125C08C2F0E94B315AD
:10394000FACF9F012E5F3F4FFE01C491CC2369F057
:103950008FE99FE00197F1F700C00000C150F6CF5A
:103960009F012E5F3F4FFE01F490E9010BC00E94C2
:10397000441FE82E07C00E94571F0E94A81E02C0C5
:103980000E94FC148F2D882341F0EFE9FFE031976E
:10399000F1F700C000008150F6CFFE017ACFDF9131
:1039A000CF911F910F91FF90EF90DF90089560935A
:1039B000FB017093FC018093FD019093FE010E9436
:1039C0006B1F0C94EE186093F7017093F8018093CD
:1039D000F9019093FA010E946C1F0C94EE1808955F
:1039E0000C94D71C0F931F930091FB011091FC01C5
:1039F0002091FD013091FE01602B712B822B932BC6
:103A00001F910F910C94D71C0F931F930091FB01F2
:103A10001091FC012091FD013091FE016023712382
:103A2000822393231F910F910C94D71C0F931F9304
:103A30000091FB011091FC012091FD013091FE01EC
:103A400060277127822793271F910F910C94D71C11
:103A500060E070E0CB010C94E31C0F931F9341E0F6
:103A600050E060E070E08A019B0104C0000F111F6C
:103A7000221F331F8A95D2F7C901B8011F910F91F8
:103A80000C94E31C0F931F9341E050E060E070E062
:103A900004C0440F551F661F771F8A95D2F7809187
:103AA000F7019091F801A091F901B091FA018A0112
:103AB0009B01082B192B2A2B3B2BC901B8011F9105
:103AC0000F910C94E31C0F931F9341E050E060E0D2
:103AD00070E004C0440F551F661F771F8A95D2F708
:103AE00040955095609570958091F7019091F801FF
:103AF000A091F901B091FA018A019B0108231923D1
:103B00002A233B23C901B8011F910F910C94E31C98
:103B10000F931F9341E050E060E070E004C0440F59
:103B2000551F661F771F8A95D2F78091F7019091F4
:103B3000F801A091F901B091FA018A019B010827CF
:103B400019272A273B27C901B8011F910F910C940F
:103B5000E31C0F931F930091F7011091F80120913E
:103B6000F9013091FA01602B712B822B932B1F915D
:103B70000F910C94E31C0F931F930091F701109188
:103B8000F8012091F9013091FA0160237123822319
:103B900093231F910F910C94E31C0F931F9300919B
:103BA000F7011091F8012091F9013091FA01602795
:103BB0007127822793271F910F910C94E31C08957E
:103BC0002EE0929F800D1124A82FA695A695A6956C
:103BD000877051E001C0550F8A95EAF785E0A89FEC
:103BE000D001112420E030E070E0F901EA0FFB1F62
:103BF000E653FE4F4081CB01022E02C09695879579
:103C00000A94E2F781709927819584278523842778
:103C100080832F5F3F4F2530310539F708952EE01F
:103C2000929F800D1124682F669566956695982F52
:103C3000977085E0689FB001112440E050E080E07B
:103C4000FA01E60FF71FE653FE4F208130E0092E00
:103C500002C0369527950A94E2F721703327042E87
:103C600001C0220F0A94EAF7822B4F5F5F4F453065
:103C7000510531F70895CF92DF92EF92FF920F93A3
:103C80001F93CF93DF938C01C090FB01D090FC0178
:103C9000E090FD01F090FE018091F7019091F80114
:103CA000A091F901B091FA01C82AD92AEA2AFB2A7F
:103CB000CFE1D0E0D701C6010C2E04C0B695A79580
:103CC000979587950A94D2F780FF06C0B8018C2F8C
:103CD0000E940C03019721F4219760F780E001C056
:103CE0008C2FDF91CF911F910F91FF90EF90DF907C
:103CF000CF900895CF93DF93EC010E943B1EBE014D
:103D00000E940C03DF91CF9108951F93CF93DF930F
:103D1000EB0190919101992321F0CB010E947A1E31
:103D200013C0882349F0CB010E943B1E182F682F37
:103D3000CE010E94E01D04C0CB010E940F1E182F6F
:103D4000BE01812F0E940C03DF91CF911F91089536
:103D5000E0911001F0911101809120028083E091A7
:103D60001001F0911101908180911F02892B8083B5
:103D700080911001909111010C94C11390910E014A
:103D8000992321F090910F01911109C02091100108
:103D900030911101F90132969FEF40E01FC0982F3A
:103DA0009695969596959F3150F5E0911001F0917A
:103DB0001101E90FF11D877021E030E0A90102C077
:103DC000440F551F8A95E2F7CA019181892B81839F
:103DD00008959F3F39F04F5F4E3141F05191581394
:103DE000F8CF0DC05111F7CF942FF5CF9F3F39F089
:103DF000F901E90FF11D97FDFA9582830895089561
:103E000090910E01992321F090910F01911109C019
:103E10002091100130911101F9013296205E3F4F3F
:103E20001FC0982F9695969596959F31F0F4E09146
:103E30001001F0911101E90FF11D877021E030E0D0
:103E4000A90102C0440F551F8A95E2F7CA01809567
:103E500091818923818308953196E217F30729F030
:103E600090819813F9CF1082F7CF089581E090E008
:103E7000E0911001F0911101E80FF91F10820196F5
:103E800080329105A9F708958091200208959091BC
:103E90002002892B80932002089580959091200222
:103EA0008923809320020895809320020895109220
:103EB0002002089590911F02892B80931F0208957C
:103EC000809590911F02892380931F02089510927C
:103ED0001F0208950895089508950C94B614089546
:103EE00082E084BD93E095BD9AEF97BD80936E000C
:103EF00008952FB7F8948091220290912302A09107
:103F00002402B09125022FBF0895CF92DF92EF9245
:103F1000FF920F931F932FB7F89440912202509174
:103F2000230260912402709125022FBF6A017B0158
:103F3000EE24FF248C0120E030E0C016D106E2061A
:103F4000F30610F4415051099A01281B390BC9019D
:103F50001F910F91FF90EF90DF90CF90089578948C
:103F60001F920F920FB60F9211248F939F93AF93CE
:103F7000BF938091220290912302A0912402B091DC
:103F800025020196A11DB11D809322029093230268
:103F9000A0932402B0932502BF91AF919F918F917E
:103FA0000F900FBE0F901F9018950E94C810F894A4
:103FB0002FEF87EA91E6215080409040E1F700C062
:103FC000000087E090EBDC0180938A0290938B02E3
:103FD000A0938C02B0938D029CE088E10FB6F89418
:103FE000A895809360000FBE90936000FFCF8091F2
:103FF0007F02843031F11092260220E488E190E0C3
:104000000FB6F894A895809360000FBE20936000CF
:104010000E94CB2683B7817F846083BF83B7816092
:1040200083BF7894889583B78E7F83BF0FB6F8944B
:10403000A895809160008861809360001092600074
:104040000FBE0895CF930E94BA140E9452040E949A
:10405000BB14C0E08C2F0E941306892B29F4CF5F7C
:10406000C530C1F780E001C081E0CF9108950E9482
:10407000FC180C9400281F920F920FB60F92112477
:104080008F939F93AF93BF9380912602811113C0AA
:104090008091220290912302A0912402B0912502E6
:1040A0004196A11DB11D8093220290932302A093FB
:1040B0002402B0932502BF91AF919F918F910F90F1
:1040C0000FBE0F901F90189580E090E00895AF927A
:1040D000BF92CF92DF92EF92FF920F931F93CF93F5
:1040E0007C01C0E0CC24C394D12C8C2F0E941306F9
:1040F0005C0100E010E0C601002E02C0880F991F8D
:104100000A94E2F78A219B21892BB1F0602F7C2F42
:1041100080E00E940C039C018E159F0559F0832FAF
:10412000807E932F907C11F0803A31F430E02E1590
:104130003F0511F481E009C00F5F1F4F0E301105DC
:10414000D1F6CF5FC53089F680E0CF911F910F91F6
:10415000FF90EF90DF90CF90BF90AF900895CF93F6
:10416000DF93EC018CE290E00E946720882329F025
:10417000CE01DF91CF910C94672080E0DF91CF9149
:104180000895CF930E942622811102C00E94072227
:10419000C5E6C15049F00E9452048FE39CE90197A3
:1041A000F1F700C00000F5CF89E290E00E94AF2057
:1041B00081112BC18AE290E00E94AF2081110E9400
:1041C000072285E090E00E94AF2081110E94D51F58
:1041D0000E946F1F0E9431228093210287E090E0AD
:1041E0000E94AF208823C1F18BE190E00E94AF20B4
:1041F000882351F08091210281FB222720F991E050
:10420000922790FB81F90FC08EE090E00E94AF20D2
:10421000882361F08091210282FB222720F991E01E
:10422000922790FB82F98093210216C080E190E0F2
:104230000E94AF2090912102882341F093FB222716
:1042400020F981E0822780FB93F904C0892F8095B3
:1042500080FB90F990932102809121020E943522E7
:104260000E9443228093880280EE90E00E94AF205B
:10427000882341F080918802982F909590FB80F9D7
:104280008093880289E390E00E94AF20882359F050
:104290008091880281FB222720F991E0922790FBF0
:1042A00081F98093880282EE90E00E94AF208823FB
:1042B00059F08091880282FB222720F991E0922711
:1042C00090FB82F98093880286EE90E00E94AF20F6
:1042D000882359F08091880283FB222720F991E0FE
:1042E000922790FB83F98093880283EE90E00E94EE
:1042F000AF20882359F08091880284FB222720F97F
:1043000091E0922790FB84F98093880285E390E006
:104310000E94AF20882359F08091880285FB2227D4
:1043200020F991E0922790FB85F98093880281E340
:1043300090E00E94AF20882359F08091880286FB8C
:10434000222720F991E0922790FB86F9809388023A
:1043500081E190E00E94AF20882359F0809188028B
:1043600087FB222720F991E0922790FB87F9809321
:104370008802809188020E9447228091880287FBF0
:10438000882780F980930F0187E290E00E94AF2098
:10439000C82F8EE190E00E94AF208111C2608FE1B2
:1043A00090E00E94AF208111C46080E290E00E9402
:1043B000AF208111C86081E290E00E94AF2081119E
:1043C000C06182E290E00E94AF208111C06283E26E
:1043D00090E00E94AF208111C06484E290E00E94CE
:1043E000AF20882311F0C06802C0CC2329F08C2FA5
:1043F0000E943E226C2F03C00E943A22682F70E078
:1044000080E090E0CF910C94F01CCF9108956DEE78
:104410007EEF80E090E00E946B2A60E082E090E016
:104420000E945D2A60E083E090E00E945D2A60E0E7
:1044300084E090E00E945D2A60E085E090E00E94C8
:104440005D2A60E086E090E00C945D2A80E090E0D8
:104450000E94392A21E08D3E9E4F09F020E0822FF4
:10446000089582E090E00C942B2A682F82E090E07F
:104470000C945D2A83E090E00C942B2A682F83E053
:1044800090E00C945D2A84E090E00C942B2A682F35
:1044900084E090E00C945D2A86E090E00C942B2A56
:1044A000682F86E090E00C945D2A8091290280FFBD
:1044B0000BC06091150185E0689FB00111247595CE
:1044C0006795759567952BC081FF09C060911501AF
:1044D00085E0689FB00111247595679520C082FF23
:1044E00007C06091150185E0689FB001112417C0D5
:1044F00090912A029923D1F060911401961788F7C0
:104500002091150185E0289F90011124929FA00120
:10451000939F500D112470E0CA010E94112A603847
:10452000710540F46115710539F002C065E070E075
:10453000862F08958FE7089581E0089580912902DC
:1045400080FF08C06091130170E0759567957595BF
:10455000679521C081FF06C06091130170E07595D9
:10456000679519C082FF04C06091130170E010C00C
:1045700090912A029923C1F0609112019617A0F739
:1045800080911301899FC001112470E00E94112ABB
:104590006038710528F46115710521F0862F0895A2
:1045A0008FE7089581E0089561E070E0F4CF803FE7
:1045B00021F40E945522819504C0813F29F40E9474
:1045C000552280932D020895823F21F40E945522A6
:1045D000819504C0833F29F40E94552280932C02C8
:1045E0000895893F19F40E949E2205C08A3F31F444
:1045F0000E949E22819580932E0208958B3F21F484
:104600000E949E22819504C08C3F29F40E949E2224
:1046100080932F020895843F21F480912B028160C2
:1046200017C0853F21F480912B02826011C0863F24
:1046300021F480912B0284600BC0873F21F480918C
:104640002B02886005C0883F31F480912B02806185
:1046500080932B0208958D3F21F48091290281607F
:104660000BC08E3F21F480912902826005C08F3FEC
:1046700029F4809129028460809329020895803F63
:1046800039F480912D0287FF6CC010922D0269C011
:10469000813F29F480912D021816BCF362C09091DD
:1046A0002C02823F29F497FF5CC010922C0259C063
:1046B000833F19F41916CCF354C0893F41F480911B
:1046C0002E0218160CF04DC010922E024AC08A3FDE
:1046D00029F480912E0287FF44C0F6CF8B3F39F436
:1046E00080912F0287FF3DC010922F023AC08C3F6D
:1046F00029F480912F021816BCF333C0843F21F4B3
:1047000080912B028E7F17C0853F21F480912B0270
:104710008D7F11C0863F21F480912B028B7F0BC0CF
:10472000873F21F480912B02877F05C0883F31F4B9
:1047300080912B028F7E80932B0213C08D3F21F43A
:10474000809129028E7F0BC08E3F21F48091290237
:104750008D7F05C08F3F29F4809129028B7F809344
:10476000290280912C0281110EC080912D028111AD
:104770000AC080912E02811106C080912F02811102
:1047800002C010922A0208958BE292E00E94CC139C
:104790000E94791F909328028093270208951F9307
:1047A000CF93DF9380912702909128020E94851F6A
:1047B000AC0190912A02992321F02091160130E05A
:1047C00006C0209117018AE0289F9001112442170A
:1047D000530708F485C080912C02C0912D02D0911E
:1047E0002E0210912F02811107C0C11175C0D11185
:1047F00073C0111171C074C09F3F19F09F5F9093F7
:104800002A02181624F40E94552280932C028091CB
:104810002C0287FF05C00E945522819580932C02AF
:104820001C1624F40E94552280932D0280912D02A3
:1048300087FF05C00E945522819580932D026091CB
:104840002C02662331F1C0912D02CC2311F1062EEA
:10485000000C770B880B990B0E94DB2823E333E3D2
:1048600043E35FE30E9468290E94A32860932C021F
:104870006C2FCC0F770B880B990B0E94DB2823E35E
:1048800033E343E35FE30E9468290E94A328609317
:104890002D021D1624F40E949E2280932E028091E8
:1048A0002E0287FF05C00E949E22819580932E02D2
:1048B000111624F40E949E2280932F0280912F02D1
:1048C00087FF05C00E949E22819580932F02DF9171
:1048D000CF911F910C94C4239F3F09F08FCF97CFA6
:1048E000DF91CF911F910895EBE2F2E085E0DF01C7
:1048F0001D928A95E9F710922A02109229020895D2
:10490000833081F128F4813059F08230D1F008955C
:10491000853009F449C0B8F1863009F456C00895CD
:1049200080911701262F30E0280F311D2F3F3105D0
:1049300024F4680F6093170108958FEF8093170197
:10494000089580911601262F30E0280F311D2F3F4A
:10495000310524F4680F6093160108958FEF80935A
:104960001601089580911501262F30E0280F311D82
:104970002F3F310524F4680F6093150108958FEFE0
:1049800080931501089580911401262F30E0280F9F
:10499000311D2F3F310524F4680F609314010895F1
:1049A0008FEF80931401089580911301262F30E03A
:1049B000280F311D2F3F310524F4680F6093130138
:1049C00008958FEF80931301089580911201262F8F
:1049D00030E0280F311D2F3F310524F4680F60931C
:1049E000120108958FEF809312010895833011F121
:1049F00028F4813049F0823091F00895853081F1BA
:104A000020F18630C1F1089580911701681720F4D4
:104A1000861B8093170108951092170108958091C5
:104A20001601681720F4861B8093160108951092D2
:104A30001601089580911501681720F4861B809354
:104A400015010895109215010895809114016817B9
:104A500020F4861B80931401089510921401089588
:104A600080911301681720F4861B80931301089529
:104A700010921301089580911201681720F4861B8B
:104A80008093120108951092120108950F931F93BD
:104A90008B3109F475C0A0F58E3009F484C0C0F4E0
:104AA000873009F462C068F4863009F0AAC08091AA
:104AB0002102817F8E7F8093210281E080933102E9
:104AC000A1C0883009F44AC08B3009F498C099C05D
:104AD000813109F472C068F4803109F092C080918C
:104AE000210283FB222720F991E0922790FB83F992
:104AF00050C0863109F483C0893109F480C081C077
:104B0000853309F463C068F4873209F45FC028F480
:104B10008E3108F476C08D515FC0893209F456C0D9
:104B200070C0833438F48A3308F055C0883309F4F0
:104B300066C067C0833409F449C0883409F061C095
:104B40000E94FC180FEF13ED20E3015010402040AD
:104B5000E1F700C000000E94D51F51C00E94312221
:104B60000E9443220E944C224AC090912102892F28
:104B7000817090FF12C0917F9E7F9093210242C06E
:104B80008091210281FB222720F991E0922790FB5E
:104B900081F980932102992391F180912102816012
:104BA000809321022CC08091210282FB222720F9D0
:104BB00091E0922790FB82F9ECCF0E94FC18909133
:104BC0000F0181E0892780930F0119C061E070E037
:104BD00080E090E010C0895341E050E060E070E078
:104BE0008A019B0104C0000F111F221F331F8A95E9
:104BF000D2F7C901B8010E94F01C0E94FC1881E0A4
:104C000001C080E01F910F91089580E0089580E039
:104C10000895CF93C82F80913102813069F018F048
:104C20008230C9F184C0E0911001F09111018081BE
:104C3000823209F07EC007C0E0911001F0911101AD
:104C40008081823261F48C2F0E940526811104C07C
:104C50008C2F0E9446251DC081E090E01AC08C2F49
:104C60000E940726811114C0C43179F048F4CB307A
:104C700079F0C03109F061C082E08093310208C050
:104C8000C93219F0C83321F058C01092310255C012
:104C900081E0817054C0C93291F120F5C43179F1BD
:104CA000B0F4C73009F047C08EE18093170182E36A
:104CB000809316018AE08093150184E180931401AA
:104CC00088E08093130188E28093120134C0CE51B2
:104CD000C63088F5EC2FF0E0E45DFE4F80818093D4
:104CE000300229C0CE34E9F020F4CB3421F56AE05B
:104CF00013C0C13579F0C235F1F461E00DC0809187
:104D00003002882319F01092300215C081E08093A0
:104D1000310215C061E006C0809130020E948024FB
:104D20000AC06AE0809130020E94F62404C010920A
:104D3000310280E004C081E002C080E0AACFCF91C0
:104D40000895E1E8F0E0808188608083808181605F
:104D500080838FB7F89493E0909389009DE09093BF
:104D600088008FBF0E947A0681E0809342020895F6
:104D700080914202882371F080918800909189008F
:104D8000892B41F080916F00826080936F0082E0F8
:104D900080934202089580914202882389F0809195
:104DA000880090918900892B59F080916F008D7F48
:104DB00080936F0081E08093420280E00C948A0629
:104DC000089580914102816080934102089510927C
:104DD000410280914202882319F080E00C948A06F7
:104DE000089580933F020895E82FF0E0E15CFD4FC5
:104DF0002081422F50E08FEF90E0861B91098417AD
:104E000095071CF48FEF80830895620F60830895E7
:104E1000682F80E00C94F426E82FF0E0E15CFD4F71
:104E20008081861710F410820895861B8083089570
:104E3000682F80E00C940C2780913E028160809363
:104E40003E02089510923E02089540913D0221E0F5
:104E500030E0662341F001C0220F8A95EAF7242B47
:104E600020933D020895B90102C0660F771F8A950D
:104E7000E2F7CB018095842380933D020895682F4B
:104E800080E00C94252780933C02089580933B0298
:104E9000089580913A02816080933A0208951092B9
:104EA0003A021092390208958093380208951F92B1
:104EB0000F920FB60F9211242F933F934F935F934E
:104EC0006F937F938F939F93AF93BF93EF93FF93D2
:104ED000809135028F5F809335029091410290FF5F
:104EE00016C081110BC080914002882319F080E028
:104EF0000E94820680913F02809340029091350289
:104F000080914002981303C080E00E948A0680913D
:104F100034028F5F803518F48093340260C01092A1
:104F2000340290913E02992309F1809133028F5F00
:104F30008093330220913C022817C0F41092330270
:104F400090FF14C080913B02882321F08150809310
:104F50003B020CC080913D0261E080FF04C080E014
:104F60000E940C2703C080E00E94F42620913A02A0
:104F70002223A9F1809132028F5F809332029091B7
:104F80003802981760F51092320220FF28C08091F5
:104F90003702E82FF0E0E751FB4FE491E0933F0246
:104FA0009091360290FF12C081110EC09E7F9093A7
:104FB00036028091390280FF12C02E7F20933A0280
:104FC0008E7F809339020BC0815007C08F3721F448
:104FD00091609093360203C08F5F80933702FF91F8
:104FE000EF91BF91AF919F918F917F916F915F9161
:104FF0004F913F912F910F900FBE0F901F901895DA
:105000000E942622811102C00E9407220E944C2287
:105010008093890280FF02C0869501C080E00C94D5
:10502000240680918902982F9695292F30E0283008
:1050300031054CF49F5F990F8170892B81608093BB
:1050400089020E9450228091890286950C94240640
:1050500080918902982F969591F09158990F8170BF
:10506000892B809389028E7F91E009F490E08091F2
:10507000890290FB80F9809389020E9450228091DE
:10508000890286950C94240680918902982F909528
:10509000917090FB80F980938902992339F0982FC1
:1050A0009E7F21F4817082608093890280918902C1
:1050B0000E9450228091890280FF02C0869501C023
:1050C00080E00C94240690918902892F86958F5F49
:1050D0008F779170893028F4880F892B809389020B
:1050E00002C090938902809189028E7F91E009F439
:1050F00090E08091890290FB80F9809389020E9460
:1051000050228091890286950C942406880F9091F4
:1051100089029170892B809389028E7F91E009F436
:1051200090E08091890290FB80F9809389020E942F
:1051300050228091890286950C9424060E9416299B
:1051400008F481E008950E94AA286894B1110C9493
:105150005D2908950E94422988F09F5798F0B92F41
:105160009927B751B0F0E1F0660F771F881F991F9C
:105170001AF0BA95C9F714C0B13091F00E945C29B9
:10518000B1E008950C945C29672F782F8827B85FC9
:1051900039F0B93FCCF3869577956795B395D9F7F4
:1051A0003EF490958095709561957F4F8F4F9F4FFE
:1051B0000895E89409C097FB3EF49095809570950A
:1051C00061957F4F8F4F9F4F9923A9F0F92F96E953
:1051D000BB279395F695879577956795B795F111C8
:1051E000F8CFFAF4BB0F11F460FF1BC06F5F7F4F65
:1051F0008F4F9F4F16C0882311F096E911C0772377
:1052000021F09EE8872F762F05C0662371F096E87F
:10521000862F70E060E02AF09A95660F771F881F4E
:10522000DAF7880F9695879597F90895990F0008F2
:10523000550FAA0BE0E8FEEF16161706E807F90768
:10524000C0F012161306E407F50798F0621B730B03
:10525000840B950B39F40A2661F0232B242B252B84
:1052600021F408950A2609F4A140A6958FEF811D27
:10527000811D089557FD9058440F551F59F05F3F09
:1052800071F04795880F97FB991F61F09F3F79F068
:1052900087950895121613061406551FF2CF4695EA
:1052A000F1DF08C0161617061806991FF1CF86956C
:1052B0007105610508940895E894BB276627772750
:1052C000CB0197F908950E94162908F48FEF0895ED
:1052D0000E947B290C94EC290E94DE2938F00E9460
:1052E000E52920F0952311F00C94D5290C94DB29A5
:1052F00011240C945D290E943A2970F3959FC1F303
:10530000950F50E0551F629FF001729FBB27F00D73
:10531000B11D639FAA27F00DB11DAA1F649F6627C8
:10532000B00DA11D661F829F2227B00DA11D621F17
:10533000739FB00DA11D621F839FA00D611D221FD1
:10534000749F3327A00D611D231F849F600D211DB5
:10535000822F762F6A2F11249F5750409AF0F1F038
:1053600088234AF0EE0FFF1FBB1F661F771F881FA1
:1053700091505040A9F79E3F510580F00C94D529DB
:105380000C945D295F3FE4F3983ED4F386957795BE
:105390006795B795F795E7959F5FC1F7FE2B880F47
:1053A000911D9695879597F9089597F99F6780E8DD
:1053B00070E060E008959FEF80EC089500240A9467
:1053C0001616170618060906089500240A941216E0
:1053D0001306140605060895092E0394000C11F413
:1053E000882352F0BB0F40F4BF2B11F460FF04C0C0
:1053F0006F5F7F4F8F4F9F4F0895AA1BBB1B51E1DB
:1054000007C0AA1FBB1FA617B70710F0A61BB70B34
:10541000881F991F5A95A9F780959095BC01CD01D9
:10542000089597FB072E16F4009407D077FD09D056
:105430000E94FD2907FC05D03EF4909581959F4F71
:105440000895709561957F4F0895EE0FFF1F0590A9
:10545000F491E02D0994F999FECF92BD81BDF89A9F
:10546000992780B50895A6E1B0E044E050E00C949F
:10547000722AA8E1B0E042E050E00C94722A262F94
:10548000F999FECF92BD81BDF89A019700B402163A
:1054900039F01FBA20BD0FB6F894FA9AF99A0FBEE8
:1054A00008950396272F0E94402A0E943F2A252F05
:1054B0000E94402A242F0C94402A262FF999FECFCF
:1054C0001FBA92BD81BD20BD0FB6F894FA9AF99A21
:1054D0000FBE019608950E945D2A272F0C945E2A24
:1054E000DC01CB01FC01F999FECF06C0F2BDE1BDA4
:1054F000F89A319600B40D9241505040B8F7089593
:04550000F894FFCF4D
:105504000105FFFFE00C3B0D180DE30CE40C010159
:10551400FF012808140A321E404D1B39A9045C04FB
:10552400410408049B03B403CD03E603010203040E
:065534000506070809004E
:106800008800EA44E944E244040005000600070069
:10681000080009A20A000B000C000DA40E000F00D6
:1068200010001100120013001400150016001700CC
:10683000180019001A001B001C001D001E001F007C
:10684000200021002200230024002500260027002C
:10685000280000F02A002B002CA12D002E002F0074
:10686000300031A5320033003400350036003700E7
:10687000380039A23A003B003C003D003E003F009A
:1068800040004100420043004400450046004700EC
:10689000480049004A004B004C004D004E004F009C
:1068A00050005100F1A1530054005500560057000C
:1068B000580059005A005B005C005D005E005F00FC
:1068C00060006100620063006400510085006700A1
:1068D000F450F550F650F750F850F950FA506F0058
:1068E00070007100720073008900F1A18A008B00B2
:1068F000E000E100E200E3004F005232F0A150005E
:106900000100010001000100FF5007094F09F55087
:106910000100F450FA500100F050F250F150F350E1
:10692000010001000100010001000100F650F950D2
:1069300001003D0901005009010001003A003B003F
:106940003C003D003E003F0040004100420043004B
:10695000CD4029000100390001004400450001003C
:1069600001000100010070406F402900E240EA4050
:10697000E9400100010001000100010001000100E7
:1069800001000100010001000100010001000100FF
:106990000100010001000100010001000100E944C3
:1069A000E244EA440100010001000100010001008D
:1069B00001000100010001000100010001000100CF
:1069C0000100010001000100010025420100010059
:1069D00001000100010001000100010001000100AF
:1069E0000100010001000100490001000100010057
:1069F00001000100010001002742B740F1A5244237
:106A00000100010001000100E20001000100E000BE
:106A100001000900010017055200500051004F000D
:106A20004E0051014D00520117050100E100010027
:106A30004A000100E3000100010001003A003B00B0
:106A40003C003D003E003F0040004100420043004A
:106A5000010035000100010028004E004B002D020E
:106A60002E02010001002D002E0001004B0001004C
:106A7000010001000100010001000100010001000E
:106A800001000100010001000100010001000100FE
:106A900001000100010001000100010001000100EE
:106AA00001000100010001000100010001000100DE
:106AB00001000100010001000100010001000100CE
:106AC00001000100010001000100010001000100BE
:106AD00001000100010001000100010001000100AE
:106AE000010001000100010001000100010001009E
:106AF000010001000100010001000100010001008E
:106B000001000100010001000100010001004D022F
:106B100001000100010001005202500251024F0227
:106B2000010001004F030100010001004A020100C1
:106B300050030100010001000100010001000100FB
:106B4000010001000100010001000100010001003D
:106B5000010001000100010001000100010001002D
:106B60000100010001002D022E02010001000100C0
:106B7000010001000100010001000100010001000D
:106B800001000100010001000100010001000100FD
:106B900001000100010001000100010001000100ED
:106BA00001000100010001000100010001000100DD
:106BB00001000100010001000100010001000100CD
:106BC00001000100010001000100010001000100BD
:106BD00001000100010001000100010001000100AD
:106BE000010001000100010001000100010001009D
:106BF000010001000100010001000100010001008D
:106C000001000100010001004900300201004C00B8
:106C100001002A002F00300001000D00E000E1001B
:106C200001000100E30001004600010029002602E6
:106C300001002F0201000100270201003A003B0081
:106C40003C003D003E003F00400041004200430048
:106C5000010001002A00010001004400450001007C
:106C6000010001000100E20001000100010001003B
:106C7000010001000100010001000100010001000C
:106C800001000100010001000100010001000100FC
:106C900001000100010001000100010001000100EC
:106CA00001000100010001000100010001000100DC
:106CB00001000100010001000100010001000100CC
:106CC00001000100010001000100010001000100BC
:106CD00001000100010001000100010001000100AC
:106CE000010001000100010001000100010001009C
:106CF000010001000100010001000100010001008C
:106D0000010001000100010021000100200023001A
:106D100026005600010001000100010001000100F1
:106D20000100010001000100240055002200540070
:106D30000100570025001F0001001E000100010096
:106D4000010001000100010001000100010001003B
:106D5000010001004C000100580001000100010089
:106D6000010001000100010001000100010001001B
:106D7000010001000100010001000100010001000B
:106D800001000100010001000100010001000100FB
:106D900001000100010001000100010001000100EB
